{"abi":[{"type":"constructor","inputs":[{"name":"v","type":"address","internalType":"contract Verifier"},{"name":"d","type":"address","internalType":"contract DKIMRegistry"}],"stateMutability":"nonpayable"},{"type":"function","name":"_domainCheck","inputs":[{"name":"headerSignals","type":"uint256[]","internalType":"uint256[]"}],"outputs":[{"name":"","type":"bool","internalType":"bool"}],"stateMutability":"pure"},{"type":"function","name":"addressIndexInSignals","inputs":[],"outputs":[{"name":"","type":"uint32","internalType":"uint32"}],"stateMutability":"view"},{"type":"function","name":"bytesInPackedBytes","inputs":[],"outputs":[{"name":"","type":"uint16","internalType":"uint16"}],"stateMutability":"view"},{"type":"function","name":"join","inputs":[{"name":"proof","type":"uint256[8]","internalType":"uint256[8]"},{"name":"signals","type":"uint256[4]","internalType":"uint256[4]"}],"outputs":[],"stateMutability":"nonpayable"},{"type":"function","name":"pubKeyHashIndexInSignals","inputs":[],"outputs":[{"name":"","type":"uint32","internalType":"uint32"}],"stateMutability":"view"},{"type":"function","name":"tokenIDToName","inputs":[{"name":"","type":"uint256","internalType":"uint256"}],"outputs":[{"name":"","type":"string","internalType":"string"}],"stateMutability":"view"},{"type":"function","name":"usernameIndexInSignals","inputs":[],"outputs":[{"name":"","type":"uint32","internalType":"uint32"}],"stateMutability":"view"},{"type":"function","name":"usernameLengthInSignals","inputs":[],"outputs":[{"name":"","type":"uint32","internalType":"uint32"}],"stateMutability":"view"},{"type":"function","name":"verifier","inputs":[],"outputs":[{"name":"","type":"address","internalType":"contract Verifier"}],"stateMutability":"view"},{"type":"event","name":"AddressValidityPass","inputs":[{"name":"sender","type":"address","indexed":false,"internalType":"address"}],"anonymous":false},{"type":"event","name":"DKIMVerificationPass","inputs":[{"name":"domain","type":"string","indexed":false,"internalType":"string"},{"name":"dkimPublicKeyHashInCircuit","type":"bytes32","indexed":false,"internalType":"bytes32"}],"anonymous":false},{"type":"event","name":"JoinedGroup","inputs":[{"name":"identityCommitment","type":"uint256","indexed":false,"internalType":"uint256"}],"anonymous":false}],"bytecode":{"object":"0x60a03461009557601f610def38819003918201601f19168301916001600160401b0383118484101761009a5780849260409485528339810103126100955780516001600160a01b03918282168203610095576020015191821680920361009557608052600180546001600160a01b031916919091179055604051610d3e90816100b182396080518181816102c90152610a8d0152f35b600080fd5b634e487b7160e01b600052604160045260246000fdfe608060408181526004908136101561001657600080fd5b600090813560e01c93846314c5225114610abc575083632b7ac3f314610a7a578363312033bf14610a605783633827fc6f146105ee5783634f79d38a146104e257836361e807181461008a578363bec47aea146104c8578363bf6f9da21461008f5750505063c9929db91461008a57600080fd5b610b71565b346104c4576101803660031901126104c45736602312156104c45780519061010082019367ffffffffffffffff94838110868211176104b157825282610104933685116104ad5782905b85821061049d575050366101231215610499578251956080870190811187821017610486578352610184863682116104825785905b828210610472575050868401516001600160a01b03908116330361043d578451953387527f73c9d7f483e7d2c39006085023a33f681c7189ec57ef10b07e2795dc97ba11d060208098a1885190600191610192898585541661016e610ca7565b8b516373d3cbbd60e11b8152808c018d905293849291839182916044830190610b4c565b87602483015203915afa908115610433578b91610416575b50156103da57916102929593917f621e4aa42d911313e17973258558f1f99701f87d29ca98d335a5fa78cf39025b8a96948a6101e4610ca7565b916101f88251938385948552840190610b4c565b908a8301520390a188519461020c86610ad5565b8051865286810151878701528b8a5161022481610ad5565b8b5161022f81610ad5565b8c840151815260608401518a82015281528b5161024b81610ad5565b6080840151815260a08401518a8201528982015260e08c519361026d85610ad5565b60c081015185520151898401528b51635fe8c13b60e01b8152998a988c8a0190610ce0565b908b604489015b600283106103af57505050506102b39060c4870190610ce0565b84018b908b905b898210610398575050505082907f0000000000000000000000000000000000000000000000000000000000000000165afa90811561038e578591610361575b5015610330575060607f08a83fe4605bc74d8fc100a21233a1ebcefd5f7d88d09c738b7e43a6c887506f939401519051908152a180f35b82606492519162461bcd60e51b8352820152600d60248201526c24b73b30b634b210283937b7b360991b6044820152fd5b6103819150843d8611610387575b6103798183610b07565b810190610cc8565b866102f9565b503d61036f565b83513d87823e3d90fd5b825181528b978997509283019291840191016102ba565b83959799506103c581889a9c9496989551610ce0565b0193019101908b979593918b8a989694610299565b875162461bcd60e51b81528088018a90526016602482015275696e76616c696420646b696d207369676e617475726560501b6044820152606490fd5b61042d91508a3d8c11610387576103798183610b07565b8c6101aa565b89513d8d823e3d90fd5b845162461bcd60e51b8152602081860152600f60248201526e496e76616c6964206164647265737360881b6044820152606490fd5b813581526020918201910161010e565b8680fd5b634e487b7160e01b865260418352602486fd5b8480fd5b81358152602091820191016100d9565b8580fd5b634e487b7160e01b855260418252602485fd5b5080fd5b346104c457816003193601126104c45760209051601f8152f35b346104c457602090816003193601126105ea578335835260028252808320815193809180549160019183831c9383811680156105e0575b88861081146105cd57899a509789979886829b5291826000146105a3575050600114610565575b858861056189610552848a0385610b07565b51928284938452830190610b4c565b0390f35b87945081939291528383205b82841061058b575050508201018161055261056188610540565b8054848a018601528895508794909301928101610571565b60ff19168882015294151560051b8701909401945085935061055292506105619150899050610540565b634e487b7160e01b845260228b52602484fd5b94607f1694610519565b8280fd5b925034610a5d57602091826003193601126104c45780359367ffffffffffffffff808611610a595736602387011215610a59578583013594602496828711610a47578660051b8451976106438483018a610b07565b8852888389019183010191368311610a435789849101915b838310610a3357505050508490865193601f9485810290808204871490151715610a215761068890610c03565b908792885b8a5161ffff8216908110156107fb576106a6908c610c35565b5183519061040082018281108a8211176107e95785528982526103e036858401378b5b8a81106107a65750908b5b8a81106107055750505061ffff8091169081146106f35760010161068d565b634e487b7160e01b8a52601189528b8afd5b9091968c6107138385610c35565b5160ff81161561077a57610744929160f89190911b6001600160f81b031916901a61073e828a610c96565b53610c5f565b966001891615610765575b61075d905b60081c91610c5f565b9190916106d4565b9761077261075d91610c84565b98905061074f565b5050966001808a1614610791575b61075d90610754565b9761079e61075d91610c84565b989050610788565b8060031b818104600814821517156107d7579060ff836107d2931c166107cc8286610c35565b52610c5f565b6106c9565b634e487b7160e01b8e5260118d528f8efd5b634e487b7160e01b8d5260418c528e8dfd5b50509288888c60ff9388600195869116106109935760121061093357505083519181815b6108f1575b505061082f82610c03565b93815b8381106108c7575050505080519161084983610ad5565b815161085481610ad5565b600c81526b76657269667940782e636f6d60a01b8582015283526108a082519361087d85610ad5565b600a855269696e666f40782e636f6d60b01b868601528581019485525182610bae565b9283156108b2575b5050519015158152f35b6108bf9293505190610bae565b9083806108a8565b6108ec906001600160f81b03196108de8285610c96565b5116841a61073e8289610c96565b610832565b855181101561092e576001600160f81b031961090d8288610c96565b5116156109235761091d90610c5f565b8161081f565b925086905080610824565b610824565b845162461bcd60e51b81529182018790526035908201527f5061636b6564206279746573206d6f7265207468616e20616c6c6f776564206d6044820152746178206e756d626572206f66207369676e616c732160581b6064820152608490fd5b855162461bcd60e51b81528084018990526057818401527f4e6f207061636b656420627974657320666f756e642120496e76616c6964206660448201527f696e616c207374617465206f66207061636b656420627974657320696e20656d60648201527f61696c3b2076616c7565206973206c696b656c79203021000000000000000000608482015260a490fd5b634e487b7160e01b8852601187528988fd5b823581529181019184910161065b565b8780fd5b634e487b7160e01b8652604185528786fd5b8380fd5b80fd5b346104c457816003193601126104c4576020905160028152f35b346104c457816003193601126104c457517f00000000000000000000000000000000000000000000000000000000000000006001600160a01b03168152602090f35b9050346104c457816003193601126104c4576020918152f35b6040810190811067ffffffffffffffff821117610af157604052565b634e487b7160e01b600052604160045260246000fd5b90601f8019910116810190811067ffffffffffffffff821117610af157604052565b60005b838110610b3c5750506000910152565b8181015183820152602001610b2c565b90602091610b6581518092818552858086019101610b29565b601f01601f1916010190565b34610b8d576000366003190112610b8d57602060405160018152f35b600080fd5b67ffffffffffffffff8111610af157601f01601f191660200190565b9060405191602092610bdc848281610bcf8183019687815193849201610b29565b8101038084520182610b07565b51902091610bfc604051918281610bcf8183019687815193849201610b29565b5190201490565b90610c0d82610b92565b610c1a6040519182610b07565b8281528092610c2b601f1991610b92565b0190602036910137565b8051821015610c495760209160051b010190565b634e487b7160e01b600052603260045260246000fd5b6000198114610c6e5760010190565b634e487b7160e01b600052601160045260246000fd5b60ff60019116019060ff8211610c6e57565b908151811015610c49570160200190565b60405190610cb482610ad5565b6005825264782e636f6d60d81b6020830152565b90816020910312610b8d57518015158103610b8d5790565b6000915b60028310610cf157505050565b600190825181526020809101920192019190610ce456fea264697066735822122071d4106705eb8c57ab3e3954c5548bf3decc974db169796a5a2f08a8cd52ba5d64736f6c63430008150033","linkReferences":{}},"methodIdentifiers":{"_domainCheck(uint256[])":"3827fc6f","addressIndexInSignals()":"312033bf","bytesInPackedBytes()":"bec47aea","join(uint256[8],uint256[4])":"bf6f9da2","pubKeyHashIndexInSignals()":"14c52251","tokenIDToName(uint256)":"4f79d38a","usernameIndexInSignals()":"c9929db9","usernameLengthInSignals()":"61e80718","verifier()":"2b7ac3f3"},"id":49}