{"abi":[{"type":"constructor","inputs":[{"name":"v","type":"address","internalType":"contract Verifier"},{"name":"d","type":"address","internalType":"contract DKIMRegistry"}],"stateMutability":"nonpayable"},{"type":"function","name":"_domainCheck","inputs":[{"name":"headerSignals","type":"uint256[]","internalType":"uint256[]"}],"outputs":[{"name":"","type":"bool","internalType":"bool"}],"stateMutability":"pure"},{"type":"function","name":"addressIndexInSignals","inputs":[],"outputs":[{"name":"","type":"uint32","internalType":"uint32"}],"stateMutability":"view"},{"type":"function","name":"approve","inputs":[{"name":"to","type":"address","internalType":"address"},{"name":"tokenId","type":"uint256","internalType":"uint256"}],"outputs":[],"stateMutability":"nonpayable"},{"type":"function","name":"balanceOf","inputs":[{"name":"owner","type":"address","internalType":"address"}],"outputs":[{"name":"","type":"uint256","internalType":"uint256"}],"stateMutability":"view"},{"type":"function","name":"bytesInPackedBytes","inputs":[],"outputs":[{"name":"","type":"uint16","internalType":"uint16"}],"stateMutability":"view"},{"type":"function","name":"getApproved","inputs":[{"name":"tokenId","type":"uint256","internalType":"uint256"}],"outputs":[{"name":"","type":"address","internalType":"address"}],"stateMutability":"view"},{"type":"function","name":"isApprovedForAll","inputs":[{"name":"owner","type":"address","internalType":"address"},{"name":"operator","type":"address","internalType":"address"}],"outputs":[{"name":"","type":"bool","internalType":"bool"}],"stateMutability":"view"},{"type":"function","name":"mint","inputs":[{"name":"proof","type":"uint256[8]","internalType":"uint256[8]"},{"name":"signals","type":"uint256[4]","internalType":"uint256[4]"}],"outputs":[],"stateMutability":"nonpayable"},{"type":"function","name":"name","inputs":[],"outputs":[{"name":"","type":"string","internalType":"string"}],"stateMutability":"view"},{"type":"function","name":"ownerOf","inputs":[{"name":"tokenId","type":"uint256","internalType":"uint256"}],"outputs":[{"name":"","type":"address","internalType":"address"}],"stateMutability":"view"},{"type":"function","name":"pubKeyHashIndexInSignals","inputs":[],"outputs":[{"name":"","type":"uint32","internalType":"uint32"}],"stateMutability":"view"},{"type":"function","name":"safeTransferFrom","inputs":[{"name":"from","type":"address","internalType":"address"},{"name":"to","type":"address","internalType":"address"},{"name":"tokenId","type":"uint256","internalType":"uint256"}],"outputs":[],"stateMutability":"nonpayable"},{"type":"function","name":"safeTransferFrom","inputs":[{"name":"from","type":"address","internalType":"address"},{"name":"to","type":"address","internalType":"address"},{"name":"tokenId","type":"uint256","internalType":"uint256"},{"name":"data","type":"bytes","internalType":"bytes"}],"outputs":[],"stateMutability":"nonpayable"},{"type":"function","name":"setApprovalForAll","inputs":[{"name":"operator","type":"address","internalType":"address"},{"name":"approved","type":"bool","internalType":"bool"}],"outputs":[],"stateMutability":"nonpayable"},{"type":"function","name":"supportsInterface","inputs":[{"name":"interfaceId","type":"bytes4","internalType":"bytes4"}],"outputs":[{"name":"","type":"bool","internalType":"bool"}],"stateMutability":"view"},{"type":"function","name":"symbol","inputs":[],"outputs":[{"name":"","type":"string","internalType":"string"}],"stateMutability":"view"},{"type":"function","name":"tokenByIndex","inputs":[{"name":"index","type":"uint256","internalType":"uint256"}],"outputs":[{"name":"","type":"uint256","internalType":"uint256"}],"stateMutability":"view"},{"type":"function","name":"tokenDesc","inputs":[{"name":"tokenId","type":"uint256","internalType":"uint256"}],"outputs":[{"name":"","type":"string","internalType":"string"}],"stateMutability":"view"},{"type":"function","name":"tokenIDToName","inputs":[{"name":"","type":"uint256","internalType":"uint256"}],"outputs":[{"name":"","type":"string","internalType":"string"}],"stateMutability":"view"},{"type":"function","name":"tokenOfOwnerByIndex","inputs":[{"name":"owner","type":"address","internalType":"address"},{"name":"index","type":"uint256","internalType":"uint256"}],"outputs":[{"name":"","type":"uint256","internalType":"uint256"}],"stateMutability":"view"},{"type":"function","name":"tokenURI","inputs":[{"name":"tokenId","type":"uint256","internalType":"uint256"}],"outputs":[{"name":"","type":"string","internalType":"string"}],"stateMutability":"view"},{"type":"function","name":"totalSupply","inputs":[],"outputs":[{"name":"","type":"uint256","internalType":"uint256"}],"stateMutability":"view"},{"type":"function","name":"transferFrom","inputs":[{"name":"from","type":"address","internalType":"address"},{"name":"to","type":"address","internalType":"address"},{"name":"tokenId","type":"uint256","internalType":"uint256"}],"outputs":[],"stateMutability":"nonpayable"},{"type":"function","name":"usernameIndexInSignals","inputs":[],"outputs":[{"name":"","type":"uint32","internalType":"uint32"}],"stateMutability":"view"},{"type":"function","name":"usernameLengthInSignals","inputs":[],"outputs":[{"name":"","type":"uint32","internalType":"uint32"}],"stateMutability":"view"},{"type":"function","name":"verifier","inputs":[],"outputs":[{"name":"","type":"address","internalType":"contract Verifier"}],"stateMutability":"view"},{"type":"event","name":"Approval","inputs":[{"name":"owner","type":"address","indexed":true,"internalType":"address"},{"name":"approved","type":"address","indexed":true,"internalType":"address"},{"name":"tokenId","type":"uint256","indexed":true,"internalType":"uint256"}],"anonymous":false},{"type":"event","name":"ApprovalForAll","inputs":[{"name":"owner","type":"address","indexed":true,"internalType":"address"},{"name":"operator","type":"address","indexed":true,"internalType":"address"},{"name":"approved","type":"bool","indexed":false,"internalType":"bool"}],"anonymous":false},{"type":"event","name":"Transfer","inputs":[{"name":"from","type":"address","indexed":true,"internalType":"address"},{"name":"to","type":"address","indexed":true,"internalType":"address"},{"name":"tokenId","type":"uint256","indexed":true,"internalType":"uint256"}],"anonymous":false}],"bytecode":{"object":"0x60a0346200036157601f6001600160401b03601f196200214538819003848101831686019190848311878410176200034b578087926040948552833981010312620003615783516001600160a01b03939092908484168403620003615760208096015194851680950362000361576200007762000366565b926200008262000366565b908451908482116200034b576000918254966001978881811c9116801562000340575b8c8210146200032c57908b8288859411620002d6575b50508b908783116001146200027157859262000265575b5050600019600383901b1c191690871b1782555b8251948511620002515785548681811c9116801562000246575b8a8210146200023257848111620001ea575b50889385116001146200018457508394959697509262000178575b5050600019600383901b1c191690821b1790555b608052600b80546001600160a01b031916919091179055604051611da49081620003a1823960805181818161063901526110220152f35b0151905038806200012d565b8493929193169785845280842093905b898210620001d2575050838596979810620001b8575b505050811b01905562000141565b015160001960f88460031b161c19169055388080620001aa565b80878596829496860151815501950193019062000194565b8683528983208580880160051c8201928c891062000228575b0160051c019087905b8281106200021c57505062000112565b8481550187906200020c565b9250819262000203565b634e487b7160e01b83526022600452602483fd5b90607f169062000100565b634e487b7160e01b82526041600452602482fd5b015190503880620000d2565b908c91858b95168780528388209388905b828210620002bc5750508411620002a2575b505050811b018255620000e6565b015160001960f88460031b161c1916905538808062000294565b8484015186558d9790950194938401939081019062000282565b90919250858052878287209181860160051c830193861062000322575b918b91869594930160051c01915b8281106200031357508d9150620000bb565b8781558594508b910162000301565b92508192620002f3565b634e487b7160e01b85526022600452602485fd5b90607f1690620000a5565b634e487b7160e01b600052604160045260246000fd5b600080fd5b60408051919082016001600160401b038111838210176200034b57604052600d82526c15995c9a599a5959115b585a5b609a1b602083015256fe608060408181526004918236101561001657600080fd5b600092833560e01c91826301ffc9a71461130e5750816306fdde0314611243578163081812fc14611223578163095ea7b3146110b557816314c522511461109a57816318160ddd1461107b57816323b872dd146110515781632b7ac3f31461100d5781632f745c5914610f61578163312033bf14610f455781633827fc6f14610adf5781633e0984901461087b57816342842e0e146108525781634f6ccce7146107be5781634f79d38a14610781578163572f892a146104da57816361e80718146101935781636352211e146104a957816370a082311461047c57816395d89b4114610363578163a22cb46514610293578163b88d4fde14610205578163bec47aea146101e9578163c87b56dd1461019857508063c9929db9146101935763e985e9c51461014357600080fd5b3461018f578060031936011261018f5760ff816020936101616113db565b6101696113f6565b6001600160a01b0391821683526005875283832091168252855220549151911615158152f35b5080fd5b611582565b83833461018f57602036600319011261018f576101b86101e59335611c2c565b8181516101c481611473565b528051916101d183611473565b8252519182916020835260208301906113b6565b0390f35b50503461018f578160031936011261018f5760209051601f8152f35b9190503461028f57608036600319011261028f576102216113db565b6102296113f6565b846064359467ffffffffffffffff861161018f573660238701121561018f57850135946102616102588761159e565b9551958661148f565b858552366024878301011161018f578561028c96602460209301838801378501015260443591611881565b80f35b8280fd5b9190503461028f578060031936011261028f576102ae6113db565b906024359182151580930361035f576001600160a01b03169233841461031d5750338452600560205280842083855260205280842060ff1981541660ff8416179055519081527f17307eab39ab6107e8899845ad3d59bd9653f200f220920489ca2b5937696c3160203392a380f35b6020606492519162461bcd60e51b8352820152601960248201527f4552433732313a20617070726f766520746f2063616c6c6572000000000000006044820152fd5b8480fd5b8284346104795780600319360112610479578151918160019283549384811c9181861695861561046f575b602096878510811461045c578899509688969785829a5291826000146104355750506001146103da575b5050506101e592916103cb91038561148f565b519282849384528301906113b6565b91908693508083527fb10e2d527612073b26eecdfd717e6a320cf44b4afac2b0732d9fcbe2b7fa0cf65b82841061041d57505050820101816103cb6101e56103b8565b8054848a018601528895508794909301928101610404565b60ff19168782015293151560051b860190930193508492506103cb91506101e590506103b8565b634e487b7160e01b835260228a52602483fd5b92607f169261038e565b80fd5b50503461018f57602036600319011261018f576020906104a261049d6113db565b611712565b9051908152f35b82843461047957602036600319011261047957506104c9602092356117d5565b90516001600160a01b039091168152f35b9190503461028f5761018036600319011261028f57366023121561028f5780519067ffffffffffffffff61010083018181118482101761076e578252610104908336831161076a5785905b83821061075a575050366101231215610756578251906080820190811182821017610743578352806101849136831161073f57839593929192905b82821061072f57505090610605929184519161057b83611441565b8351835260209684888096015186860152875161059781611441565b88516105a281611441565b898301518152606083015188820152815288516105be81611441565b6080830151815260a0830151888201528782015260e08951926105e084611441565b60c081015184520151878301528851635fe8c13b60e01b81529788968c8801906116ea565b8b89604488015b6002831061070557505050506106269060c48601906116ea565b830189905b8982106106ec5750839150507f00000000000000000000000000000000000000000000000000000000000000006001600160a01b03165afa9081156106e25785916106ac575b501561067b578380f35b5162461bcd60e51b815291820152600d60248201526c24b73b30b634b210283937b7b360991b604482015260649150fd5b90508281813d83116106db575b6106c3818361148f565b8101031261035f5751801515810361035f5738610671565b503d6106b9565b82513d87823e3d90fd5b825181528895879550928301926001909201910161062b565b83959799929496985061071b81600195516116ea565b01930191019087959391898b98969461060c565b8135815260209182019101610560565b8780fd5b634e487b7160e01b875260418652602487fd5b8580fd5b8135815260209182019101610525565b8680fd5b634e487b7160e01b865260418552602486fd5b90503461028f57602036600319011261028f57816101e5936107ab92358152600c602052206114b1565b90519182916020835260208301906113b6565b9050823461047957602036600319011261047957508035906008548210156107fa576020836107ec846115ba565b91905490519160031b1c8152f35b608490602084519162461bcd60e51b8352820152602c60248201527f455243373231456e756d657261626c653a20676c6f62616c20696e646578206f60448201526b7574206f6620626f756e647360a01b6064820152fd5b50503461018f5761028c906108663661140c565b9192519261087384611473565b858452611881565b83833461018f576020918260031936011261047957833590818152600c84526108ae6108a88483206114b1565b926117d5565b948351956bffffffffffffffffffffffff199060601b1685870152601486526108d686611441565b8351916108e283611441565b601083526f181899199a1a9b1b9c1cb0b131b232b360811b8684015286519060019180831b600291808204831490151715610acc578101808211610acc5761092990611607565b94855115610ab9578886019960308b538651851015610aa6576078602188015383855b6109c2575b6109b38b6101e58c8f60398e6103cb928f85519889936d426c696e6420757365726e616d6560901b8a860152610990815180928c602e89019101611393565b8401916a6973206f776e656420627960a81b602e84015251809386840190611393565b0103601981018752018561148f565b8151811015610aa1576001600160f81b0319806109ec6109e28486611639565b5160fc1c86611639565b51169082881b91838304871484151715610a8e5782870190818811610a7b57610a1890891a918c611639565b53610a33600f610a288587611639565b5160f81c1686611639565b51166003918201809211610a685791610a5e91610a5888979695948a991a918c611639565b5361164a565b909192939461094c565b634e487b7160e01b875260118952602487fd5b634e487b7160e01b895260118b52602489fd5b634e487b7160e01b885260118a52602488fd5b610951565b634e487b7160e01b845260328652602484fd5b634e487b7160e01b835260328552602483fd5b634e487b7160e01b835260118552602483fd5b90508234610479576020918260031936011261018f5780359367ffffffffffffffff808611610f415736602387011215610f41578583013594602496828711610f2f578660051b845197610b358483018a61148f565b885288838901918301019136831161073f5789849101915b838310610f1f57505050508490865193601f9485810290808204871490151715610f0d57610b7a90611607565b908792885b8a5161ffff821690811015610ce757610b98908c6116c4565b5183519061040082018281108a821117610cd55785528982526103e036858401378b5b8a8110610c925750908b5b8a8110610bf75750505061ffff809116908114610be557600101610b7f565b634e487b7160e01b8a52601189528b8afd5b9091968c610c0583856116c4565b5160ff811615610c6657610c30929160f89190911b6001600160f81b031916901a610a58828a611639565b966001891615610c51575b610c49905b60081c9161164a565b919091610bc6565b97610c5e610c49916116d8565b989050610c3b565b5050966001808a1614610c7d575b610c4990610c40565b97610c8a610c49916116d8565b989050610c74565b8060031b81810460081482151715610cc3579060ff83610cbe931c16610cb882866116c4565b5261164a565b610bbb565b634e487b7160e01b8e5260118d528f8efd5b634e487b7160e01b8d5260418c528e8dfd5b50509288888c60ff938860019586911610610e7f57601210610e1f57505083519181815b610ddd575b5050610d1b82611607565b93815b838110610db35750505050805191610d3583611441565b8151610d4081611441565b600c81526b76657269667940782e636f6d60a01b858201528352610d8c825193610d6985611441565b600a855269696e666f40782e636f6d60b01b86860152858101948552518261166f565b928315610d9e575b5050519015158152f35b610dab929350519061166f565b908380610d94565b610dd8906001600160f81b0319610dca8285611639565b5116841a610a588289611639565b610d1e565b8551811015610e1a576001600160f81b0319610df98288611639565b511615610e0f57610e099061164a565b81610d0b565b925086905080610d10565b610d10565b845162461bcd60e51b81529182018790526035908201527f5061636b6564206279746573206d6f7265207468616e20616c6c6f776564206d6044820152746178206e756d626572206f66207369676e616c732160581b6064820152608490fd5b855162461bcd60e51b81528084018990526057818401527f4e6f207061636b656420627974657320666f756e642120496e76616c6964206660448201527f696e616c207374617465206f66207061636b656420627974657320696e20656d60648201527f61696c3b2076616c7565206973206c696b656c79203021000000000000000000608482015260a490fd5b634e487b7160e01b8852601187528988fd5b8235815291810191849101610b4d565b634e487b7160e01b8652604185528786fd5b8380fd5b50503461018f578160031936011261018f576020905160028152f35b828434610479578160031936011261047957610f7b6113db565b60243590610f8881611712565b821015610fb6576001600160a01b031682526006602090815283832091835290815290829020548251908152f35b835162461bcd60e51b8152602081870152602b60248201527f455243373231456e756d657261626c653a206f776e657220696e646578206f7560448201526a74206f6620626f756e647360a81b6064820152608490fd5b50503461018f578160031936011261018f57517f00000000000000000000000000000000000000000000000000000000000000006001600160a01b03168152602090f35b83346104795761028c6110633661140c565b91611076611071843361191c565b61181f565b6119e4565b50503461018f578160031936011261018f576020906008549051908152f35b50503461018f578160031936011261018f5751908152602090f35b90503461028f578160031936011261028f576110cf6113db565b6024359290916001600160a01b03919082806110ea876117d5565b169416938085146111d6578033149081156111b7575b501561114f57848652602052842080546001600160a01b03191683179055611127836117d5565b167f8c5be1e5ebec7d5bd14f71427d1e84f3dd0314c0f7b2291e5b200ac8c7c3b9258480a480f35b6020608492519162461bcd60e51b8352820152603d60248201527f4552433732313a20617070726f76652063616c6c6572206973206e6f7420746f60448201527f6b656e206f776e6572206f7220617070726f76656420666f7220616c6c0000006064820152fd5b90508652600560205281862033875260205260ff828720541638611100565b506020608492519162461bcd60e51b8352820152602160248201527f4552433732313a20617070726f76616c20746f2063757272656e74206f776e656044820152603960f91b6064820152fd5b82843461047957602036600319011261047957506104c9602092356117fb565b82843461047957806003193601126104795781519181825492600184811c91818616958615611304575b602096878510811461045c578899509688969785829a5291826000146104355750506001146112a9575050506101e592916103cb91038561148f565b91908693508280527f290decd9548b62a8d60345a988386fc84ba6bc95484008f6362f93160ef3e5635b8284106112ec57505050820101816103cb6101e56103b8565b8054848a0186015288955087949093019281016112d3565b92607f169261126d565b84913461028f57602036600319011261028f573563ffffffff60e01b811680910361028f576020925063780e9d6360e01b8114908115611350575b5015158152f35b6380ac58cd60e01b811491508115611382575b8115611371575b5083611349565b6301ffc9a760e01b1490508361136a565b635b5e139f60e01b81149150611363565b60005b8381106113a65750506000910152565b8181015183820152602001611396565b906020916113cf81518092818552858086019101611393565b601f01601f1916010190565b600435906001600160a01b03821682036113f157565b600080fd5b602435906001600160a01b03821682036113f157565b60609060031901126113f1576001600160a01b039060043582811681036113f1579160243590811681036113f1579060443590565b6040810190811067ffffffffffffffff82111761145d57604052565b634e487b7160e01b600052604160045260246000fd5b6020810190811067ffffffffffffffff82111761145d57604052565b90601f8019910116810190811067ffffffffffffffff82111761145d57604052565b90604051906000835490600182811c90808416968715611578575b602094858410891461156457879884899798995290816000146115425750600114611503575b5050506115019250038361148f565b565b600090815285812095935091905b81831061152a57505061150193508201013880806114f2565b85548884018501529485019487945091830191611511565b9250505061150194925060ff191682840152151560051b8201013880806114f2565b634e487b7160e01b85526022600452602485fd5b91607f16916114cc565b346113f15760003660031901126113f157602060405160018152f35b67ffffffffffffffff811161145d57601f01601f191660200190565b6008548110156115f15760086000527ff3f7a9fe364faab93b216da50a3214154f22a0a2b415b23a84c8169e8b636ee30190600090565b634e487b7160e01b600052603260045260246000fd5b906116118261159e565b61161e604051918261148f565b828152809261162f601f199161159e565b0190602036910137565b9081518110156115f1570160200190565b60001981146116595760010190565b634e487b7160e01b600052601160045260246000fd5b906040519160209261169d8482816116908183019687815193849201611393565b810103808452018261148f565b519020916116bd6040519182816116908183019687815193849201611393565b5190201490565b80518210156115f15760209160051b010190565b60ff60019116019060ff821161165957565b6000915b600283106116fb57505050565b6001908251815260208091019201920191906116ee565b6001600160a01b0316801561173257600052600360205260406000205490565b60405162461bcd60e51b815260206004820152602960248201527f4552433732313a2061646472657373207a65726f206973206e6f7420612076616044820152683634b21037bbb732b960b91b6064820152608490fd5b1561179057565b60405162461bcd60e51b815260206004820152601860248201527f4552433732313a20696e76616c696420746f6b656e20494400000000000000006044820152606490fd5b6000908152600260205260409020546001600160a01b03166117f8811515611789565b90565b61180481611c2c565b6000908152600460205260409020546001600160a01b031690565b1561182657565b60405162461bcd60e51b815260206004820152602d60248201527f4552433732313a2063616c6c6572206973206e6f7420746f6b656e206f776e6560448201526c1c881bdc88185c1c1c9bdd9959609a1b6064820152608490fd5b906118a5939291611895611071843361191c565b6118a08383836119e4565b611c4f565b156118ac57565b60405162461bcd60e51b8152806118c5600482016118c9565b0390fd5b60809060208152603260208201527f4552433732313a207472616e7366657220746f206e6f6e20455243373231526560408201527131b2b4bb32b91034b6b83632b6b2b73a32b960711b60608201520190565b906001600160a01b038080611930846117d5565b16931691838314938415611963575b50831561194d575b50505090565b611959919293506117fb565b1614388080611947565b909350600052600560205260406000208260005260205260ff60406000205416923861193f565b1561199157565b60405162461bcd60e51b815260206004820152602560248201527f4552433732313a207472616e736665722066726f6d20696e636f72726563742060448201526437bbb732b960d91b6064820152608490fd5b611a08916119f1846117d5565b6001600160a01b039384841693918516841461198a565b838216938415611bdb57839182611b385750905060085490856000526009602052816040600020556801000000000000000082101561145d57611a8592611a568360018795016008556115ba565b81549060031b9089821b91600019901b19161790555b828603611b05575b50611a7e866117d5565b161461198a565b7fddf252ad1be2c89b69c2b068fc378daa952ba7f163c4a11628f55a4df523b3ef60008481526004602052604081206bffffffffffffffffffffffff60a01b9081815416905583825260036020526040822060001981540190558482526040822060018154019055858252600260205284604083209182541617905580a4565b611b0e90611712565b60406000878152600660205281812083825260205288828220558881526007602052205538611a74565b858303611b4a575b50611a8592611a6c565b611b55919250611712565b60001981019190821161165957611a859284926000908882526020906007825260409182842054828103611ba4575b508a84528383812055868452600681528284209184525281205592611b40565b8785526006825283852083865282528385205488865260068352848620828752835280858720558552600782528385205538611b84565b60405162461bcd60e51b8152602060048201526024808201527f4552433732313a207472616e7366657220746f20746865207a65726f206164646044820152637265737360e01b6064820152608490fd5b600090815260026020526040902054611501906001600160a01b03161515611789565b9293919290803b15611d6457611ca39460018060a01b039460405192839187630a85bd0160e11b9687855233600486015216602484015260448301526080606483015281806020998a9560848301906113b6565b03916000988991165af1849181611d24575b50611d13575050503d600014611d0b573d611ccf8161159e565b90611cdd604051928361148f565b81528091833d92013e5b80519182611d085760405162461bcd60e51b8152806118c5600482016118c9565b01fd5b506060611ce7565b6001600160e01b0319161492509050565b9091508581813d8311611d5d575b611d3c818361148f565b8101031261035f57516001600160e01b03198116810361035f579038611cb5565b503d611d32565b505091505060019056fea264697066735822122036fb861d1bb1ccfefaf8890e08ff403fd54ff973be2ec14a511e10554523bb8064736f6c63430008150033","linkReferences":{}},"methodIdentifiers":{"_domainCheck(uint256[])":"3827fc6f","addressIndexInSignals()":"312033bf","approve(address,uint256)":"095ea7b3","balanceOf(address)":"70a08231","bytesInPackedBytes()":"bec47aea","getApproved(uint256)":"081812fc","isApprovedForAll(address,address)":"e985e9c5","mint(uint256[8],uint256[4])":"572f892a","name()":"06fdde03","ownerOf(uint256)":"6352211e","pubKeyHashIndexInSignals()":"14c52251","safeTransferFrom(address,address,uint256)":"42842e0e","safeTransferFrom(address,address,uint256,bytes)":"b88d4fde","setApprovalForAll(address,bool)":"a22cb465","supportsInterface(bytes4)":"01ffc9a7","symbol()":"95d89b41","tokenByIndex(uint256)":"4f6ccce7","tokenDesc(uint256)":"3e098490","tokenIDToName(uint256)":"4f79d38a","tokenOfOwnerByIndex(address,uint256)":"2f745c59","tokenURI(uint256)":"c87b56dd","totalSupply()":"18160ddd","transferFrom(address,address,uint256)":"23b872dd","usernameIndexInSignals()":"c9929db9","usernameLengthInSignals()":"61e80718","verifier()":"2b7ac3f3"},"id":69}